{
  "_format": "hh-sol-artifact-1",
  "contractName": "Counter",
  "sourceName": "contracts/Lock.sol",
  "abi": [
    {
      "inputs": [],
      "stateMutability": "nonpayable",
      "type": "constructor"
    },
    {
      "anonymous": false,
      "inputs": [
        {
          "indexed": false,
          "internalType": "uint256",
          "name": "_count",
          "type": "uint256"
        }
      ],
      "name": "countDecremented",
      "type": "event"
    },
    {
      "anonymous": false,
      "inputs": [
        {
          "indexed": false,
          "internalType": "uint256",
          "name": "_count",
          "type": "uint256"
        }
      ],
      "name": "countIncremented",
      "type": "event"
    },
    {
      "inputs": [],
      "name": "_owner",
      "outputs": [
        {
          "internalType": "address",
          "name": "",
          "type": "address"
        }
      ],
      "stateMutability": "view",
      "type": "function"
    },
    {
      "inputs": [],
      "name": "decrement",
      "outputs": [],
      "stateMutability": "nonpayable",
      "type": "function"
    },
    {
      "inputs": [],
      "name": "getCount",
      "outputs": [
        {
          "internalType": "uint256",
          "name": "",
          "type": "uint256"
        }
      ],
      "stateMutability": "view",
      "type": "function"
    },
    {
      "inputs": [],
      "name": "increment",
      "outputs": [],
      "stateMutability": "nonpayable",
      "type": "function"
    }
  ],
  "bytecode": "0x6080604052348015600f57600080fd5b506000808190555033600160006101000a81548173ffffffffffffffffffffffffffffffffffffffff021916908373ffffffffffffffffffffffffffffffffffffffff160217905550610528806100676000396000f3fe608060405234801561001057600080fd5b506004361061004c5760003560e01c80632baeceb714610051578063a87d942c1461005b578063b2bdfa7b14610079578063d09de08a14610097575b600080fd5b6100596100a1565b005b6100636101c8565b60405161007091906102f2565b60405180910390f35b6100816101d1565b60405161008e919061034e565b60405180910390f35b61009f6101f7565b005b600160009054906101000a900473ffffffffffffffffffffffffffffffffffffffff1673ffffffffffffffffffffffffffffffffffffffff163373ffffffffffffffffffffffffffffffffffffffff1614610131576040517f08c379a0000000000000000000000000000000000000000000000000000000008152600401610128906103c6565b60405180910390fd5b60008081548092919061014390610415565b919050555060008054101561018d576040517f08c379a00000000000000000000000000000000000000000000000000000000081526004016101849061048a565b60405180910390fd5b7fa3a95d8bc9673e767d645d7053d32458e67ed6c306029e58d35a7468c38441b26000546040516101be91906102f2565b60405180910390a1565b60008054905090565b600160009054906101000a900473ffffffffffffffffffffffffffffffffffffffff1681565b600160009054906101000a900473ffffffffffffffffffffffffffffffffffffffff1673ffffffffffffffffffffffffffffffffffffffff163373ffffffffffffffffffffffffffffffffffffffff1614610287576040517f08c379a000000000000000000000000000000000000000000000000000000000815260040161027e906103c6565b60405180910390fd5b600080815480929190610299906104aa565b91905055507fc079e126e71a56b7313d24c868426a974e7897b6413b52d22c62a7a8198d281f6000546040516102cf91906102f2565b60405180910390a1565b6000819050919050565b6102ec816102d9565b82525050565b600060208201905061030760008301846102e3565b92915050565b600073ffffffffffffffffffffffffffffffffffffffff82169050919050565b60006103388261030d565b9050919050565b6103488161032d565b82525050565b6000602082019050610363600083018461033f565b92915050565b600082825260208201905092915050565b7f6f6e6c79206f776e65722063616e2063616c6c2066756e6374696f6e00000000600082015250565b60006103b0601c83610369565b91506103bb8261037a565b602082019050919050565b600060208201905081810360008301526103df816103a3565b9050919050565b7f4e487b7100000000000000000000000000000000000000000000000000000000600052601160045260246000fd5b6000610420826102d9565b915060008203610433576104326103e6565b5b600182039050919050565b7f636f756e742063616e6e6f74206265206e656761746976650000000000000000600082015250565b6000610474601883610369565b915061047f8261043e565b602082019050919050565b600060208201905081810360008301526104a381610467565b9050919050565b60006104b5826102d9565b91507fffffffffffffffffffffffffffffffffffffffffffffffffffffffffffffffff82036104e7576104e66103e6565b5b60018201905091905056fea2646970667358221220bc08875cc2647b15531255a961b4d8d1d2f02e340a137a556905cc76070d0c6d64736f6c634300081c0033",
  "linkReferences": {},
  "deployedLinkReferences": {}
}